S01800004D6963726F436F6E74726F6C6C6572732E737265637B
S113000045C0000058C0000056C0000054C00000A5
S113001052C0000050C000004EC000004CC00000A0
S11300204AC0000048C0000046C0000044C00000B0
S113003042C0000040C000003EC000003CC00000C0
S11300403AC0000038C0000036C0000034C00000D0
S113005032C0000030C000002EC000002CC00000E0
S11300602AC0000028C0000026C0000024C00000F0
S113007022C0000020C000001EC000001CC0000000
S11300801AC0000018C0000016C0000011241FBED2
S1130090CFEFD0E1DEBFCDBF11E0A0E0B1E0E0EAF8
S11300A0F1E000E00BBF02C007900D92AE30B10743
S11300B0D9F702D073C0A4CF30D080E090E06BD0E9
S11300C080E091E04ED082E090E065D082E091E063
S11300D048D084E090E05FD084E091E042D086E0B4
S11300E090E059D086E091E03CD080E090E0089523
S11300F08FEC97E00197F1F700C00000AB9A8FEC0A
S113010097E00197F1F700C00000AB988FEC97E0FF
S11301100197F1F700C000000895CF938FEF84BBDF
S113012015BAC8E2C5BBE4DFC5BBE2DF80E885BB26
S1130130DFDF15BADDDF80EF85BBDADF15BAD8DF84
S113014080E685BBD5DFCF910895CF93C82F85BBBB
S1130150AA9ACEDFC295C07FC5BBAA9AC9DFCF9148
S11301600895CF93DF93EC018881882329F02196A9
S1130170ECDF89918111FCCFDF91CF910895CF936A
S1130180C82F85BBAA98B4DFC295C07FC5BBAA9807
S1130190AFDFCF9108958058F2CF0895F894FFCF40
S11101A0480059004B004A416E746A65000025
S9030000FC
