S01800004D6963726F436F6E74726F6C6C6572732E737265637B
S113000045C000007AC00000A2C0000054C0000037
S113001052C0000050C000004EC000004CC00000A0
S11300204AC0000048C0000046C0000044C00000B0
S113003042C0000040C000003EC000003CC00000C0
S11300403AC0000038C0000036C0000034C00000D0
S113005032C0000030C000002EC000002CC00000E0
S11300602AC0000028C0000026C0000024C00000F0
S113007022C0000020C000001EC000001CC0000000
S11300801AC0000018C0000016C0000011241FBED2
S1130090CFEFD0E1DEBFCDBF11E0A0E0B1E0E6EAF2
S11300A0F1E000E00BBF02C007900D92A230B1074F
S11300B0D9F702D076C0A4CF80EF81BBEAE6F0E0A6
S11300C080818B60808389B7836089BF7894FFCFF8
S11300D08091000190910101880F991F8138910549
S11300E02CF49093010180930001089581E090E045
S11300F0909301018093000108951F920F920FB60F
S11301000F9211240BB60F922F933F934F935F934B
S11301106F937F938F939F93AF93BF93EF93FF93CB
S11301208091000182BBD4DFFF91EF91BF91AF9129
S11301309F918F917F916F915F914F913F912F91FB
S11301400F900BBE0F900FBE0F901F9018951F922B
S11301500F920FB60F9211240BB60F922F933F9369
S11301604F935F936F937F938F939F93AF93BF93BB
S1130170EF93FF938091000182BBAADFFF91EF917F
S1130180BF91AF919F918F917F916F915F914F91AB
S11301903F912F910F900BBE0F900FBE0F901F90A9
S10901A01895F894FFCF4E
S10501A6010052
S9030000FC
