S01800004D6963726F436F6E74726F6C6C6572732E737265637B
S113000045C0000058C0000056C0000054C00000A5
S113001052C0000050C000004EC000004CC00000A0
S11300204AC0000048C0000046C0000044C00000B0
S113003042C0000040C000003EC000003CC00000C0
S11300403AC0000038C0000036C0000034C00000D0
S113005032C0000030C000002EC000002CC00000E0
S11300602AC0000028C0000026C0000024C00000F0
S113007022C0000020C000001EC000001CC0000000
S11300801AC0000018C0000016C0000011241FBED2
S1130090CFEFD0E1DEBFCDBF11E0A0E0B1E0E4EDF1
S11300A0F1E000E00BBF02C007900D92A630B1074B
S11300B0D9F702D08DC0A4CF80EF81BB42D02FEFFF
S11300C089E698E1215080409040E1F700C00000AB
S11300D081E06FD02FE78AE196E021508040904084
S11300E0E1F700C0000080E090E06FD02FE78AE1E4
S11300F096E0215080409040E1F700C0000080E08D
S113010091E043D02FEF8EE994E22150804090405B
S1130110E1F700C00000DCCF8FEC97E00197F1F726
S113012000C00000AB9A8FEC97E00197F1F700C094
S11301300000AB988FEC97E00197F1F700C0000046
S11301400895CF938FEF84BB15BAC8E2C5BBE4DF33
S1130150C5BBE2DF80E885BBDFDF15BADDDF80EFFA
S113016085BBDADF15BAD8DF80E685BBD5DFCF9152
S11301700895CF93C82F85BBAA9ACEDFC295C07FBE
S1130180C5BBAA9AC9DFCF910895CF93DF93EC0141
S11301908881882359F02196ECDF8FE39CE901974D
S11301A0F1F700C0000089918111F6CFDF91CF9162
S11301B00895CF93C82F85BBAA98AEDFC295C07FA0
S11301C0C5BBAA98A9DFCF9108958058F2CF0895AE
S10701D0F894FFCFCD
S10901D4686D6D6D000072
S9030000FC
